{
  "contractName": "SolnSquareVerifier",
  "abi": [
    {
      "constant": true,
      "inputs": [
        {
          "name": "interfaceId",
          "type": "bytes4"
        }
      ],
      "name": "supportsInterface",
      "outputs": [
        {
          "name": "",
          "type": "bool"
        }
      ],
      "payable": false,
      "stateMutability": "view",
      "type": "function"
    },
    {
      "constant": true,
      "inputs": [],
      "name": "name",
      "outputs": [
        {
          "name": "",
          "type": "string"
        }
      ],
      "payable": false,
      "stateMutability": "view",
      "type": "function"
    },
    {
      "constant": true,
      "inputs": [
        {
          "name": "tokenId",
          "type": "uint256"
        }
      ],
      "name": "getApproved",
      "outputs": [
        {
          "name": "",
          "type": "address"
        }
      ],
      "payable": false,
      "stateMutability": "view",
      "type": "function"
    },
    {
      "constant": false,
      "inputs": [
        {
          "name": "to",
          "type": "address"
        },
        {
          "name": "tokenId",
          "type": "uint256"
        }
      ],
      "name": "approve",
      "outputs": [],
      "payable": false,
      "stateMutability": "nonpayable",
      "type": "function"
    },
    {
      "constant": true,
      "inputs": [],
      "name": "totalSupply",
      "outputs": [
        {
          "name": "",
          "type": "uint256"
        }
      ],
      "payable": false,
      "stateMutability": "view",
      "type": "function"
    },
    {
      "constant": false,
      "inputs": [
        {
          "name": "from",
          "type": "address"
        },
        {
          "name": "to",
          "type": "address"
        },
        {
          "name": "tokenId",
          "type": "uint256"
        }
      ],
      "name": "transferFrom",
      "outputs": [],
      "payable": false,
      "stateMutability": "nonpayable",
      "type": "function"
    },
    {
      "constant": false,
      "inputs": [
        {
          "name": "_myid",
          "type": "bytes32"
        },
        {
          "name": "_result",
          "type": "string"
        }
      ],
      "name": "__callback",
      "outputs": [],
      "payable": false,
      "stateMutability": "nonpayable",
      "type": "function"
    },
    {
      "constant": true,
      "inputs": [
        {
          "name": "owner",
          "type": "address"
        },
        {
          "name": "index",
          "type": "uint256"
        }
      ],
      "name": "tokenOfOwnerByIndex",
      "outputs": [
        {
          "name": "",
          "type": "uint256"
        }
      ],
      "payable": false,
      "stateMutability": "view",
      "type": "function"
    },
    {
      "constant": false,
      "inputs": [
        {
          "name": "_myid",
          "type": "bytes32"
        },
        {
          "name": "_result",
          "type": "string"
        },
        {
          "name": "_proof",
          "type": "bytes"
        }
      ],
      "name": "__callback",
      "outputs": [],
      "payable": false,
      "stateMutability": "nonpayable",
      "type": "function"
    },
    {
      "constant": false,
      "inputs": [],
      "name": "unpause",
      "outputs": [],
      "payable": false,
      "stateMutability": "nonpayable",
      "type": "function"
    },
    {
      "constant": false,
      "inputs": [
        {
          "name": "from",
          "type": "address"
        },
        {
          "name": "to",
          "type": "address"
        },
        {
          "name": "tokenId",
          "type": "uint256"
        }
      ],
      "name": "safeTransferFrom",
      "outputs": [],
      "payable": false,
      "stateMutability": "nonpayable",
      "type": "function"
    },
    {
      "constant": true,
      "inputs": [
        {
          "name": "index",
          "type": "uint256"
        }
      ],
      "name": "tokenByIndex",
      "outputs": [
        {
          "name": "",
          "type": "uint256"
        }
      ],
      "payable": false,
      "stateMutability": "view",
      "type": "function"
    },
    {
      "constant": true,
      "inputs": [],
      "name": "paused",
      "outputs": [
        {
          "name": "",
          "type": "bool"
        }
      ],
      "payable": false,
      "stateMutability": "view",
      "type": "function"
    },
    {
      "constant": true,
      "inputs": [
        {
          "name": "tokenId",
          "type": "uint256"
        }
      ],
      "name": "ownerOf",
      "outputs": [
        {
          "name": "",
          "type": "address"
        }
      ],
      "payable": false,
      "stateMutability": "view",
      "type": "function"
    },
    {
      "constant": true,
      "inputs": [
        {
          "name": "owner",
          "type": "address"
        }
      ],
      "name": "balanceOf",
      "outputs": [
        {
          "name": "",
          "type": "uint256"
        }
      ],
      "payable": false,
      "stateMutability": "view",
      "type": "function"
    },
    {
      "constant": false,
      "inputs": [],
      "name": "renounceOwnership",
      "outputs": [],
      "payable": false,
      "stateMutability": "nonpayable",
      "type": "function"
    },
    {
      "constant": false,
      "inputs": [],
      "name": "pause",
      "outputs": [],
      "payable": false,
      "stateMutability": "nonpayable",
      "type": "function"
    },
    {
      "constant": true,
      "inputs": [],
      "name": "owner",
      "outputs": [
        {
          "name": "",
          "type": "address"
        }
      ],
      "payable": false,
      "stateMutability": "view",
      "type": "function"
    },
    {
      "constant": true,
      "inputs": [],
      "name": "isOwner",
      "outputs": [
        {
          "name": "",
          "type": "bool"
        }
      ],
      "payable": false,
      "stateMutability": "view",
      "type": "function"
    },
    {
      "constant": true,
      "inputs": [],
      "name": "symbol",
      "outputs": [
        {
          "name": "",
          "type": "string"
        }
      ],
      "payable": false,
      "stateMutability": "view",
      "type": "function"
    },
    {
      "constant": false,
      "inputs": [
        {
          "name": "to",
          "type": "address"
        },
        {
          "name": "approved",
          "type": "bool"
        }
      ],
      "name": "setApprovalForAll",
      "outputs": [],
      "payable": false,
      "stateMutability": "nonpayable",
      "type": "function"
    },
    {
      "constant": false,
      "inputs": [
        {
          "name": "from",
          "type": "address"
        },
        {
          "name": "to",
          "type": "address"
        },
        {
          "name": "tokenId",
          "type": "uint256"
        },
        {
          "name": "_data",
          "type": "bytes"
        }
      ],
      "name": "safeTransferFrom",
      "outputs": [],
      "payable": false,
      "stateMutability": "nonpayable",
      "type": "function"
    },
    {
      "constant": true,
      "inputs": [
        {
          "name": "tokenId",
          "type": "uint256"
        }
      ],
      "name": "tokenURI",
      "outputs": [
        {
          "name": "",
          "type": "string"
        }
      ],
      "payable": false,
      "stateMutability": "view",
      "type": "function"
    },
    {
      "constant": true,
      "inputs": [],
      "name": "baseTokenURI",
      "outputs": [
        {
          "name": "",
          "type": "string"
        }
      ],
      "payable": false,
      "stateMutability": "view",
      "type": "function"
    },
    {
      "constant": true,
      "inputs": [
        {
          "name": "owner",
          "type": "address"
        },
        {
          "name": "operator",
          "type": "address"
        }
      ],
      "name": "isApprovedForAll",
      "outputs": [
        {
          "name": "",
          "type": "bool"
        }
      ],
      "payable": false,
      "stateMutability": "view",
      "type": "function"
    },
    {
      "constant": false,
      "inputs": [
        {
          "name": "newOwner",
          "type": "address"
        }
      ],
      "name": "transferOwnership",
      "outputs": [],
      "payable": false,
      "stateMutability": "nonpayable",
      "type": "function"
    },
    {
      "inputs": [
        {
          "name": "verifierAddress",
          "type": "address"
        }
      ],
      "payable": false,
      "stateMutability": "nonpayable",
      "type": "constructor"
    },
    {
      "anonymous": false,
      "inputs": [
        {
          "indexed": false,
          "name": "solver",
          "type": "address"
        },
        {
          "indexed": false,
          "name": "solutionHash",
          "type": "bytes32"
        }
      ],
      "name": "SolutionAdded",
      "type": "event"
    },
    {
      "anonymous": false,
      "inputs": [
        {
          "indexed": true,
          "name": "from",
          "type": "address"
        },
        {
          "indexed": true,
          "name": "to",
          "type": "address"
        },
        {
          "indexed": true,
          "name": "tokenId",
          "type": "uint256"
        }
      ],
      "name": "Transfer",
      "type": "event"
    },
    {
      "anonymous": false,
      "inputs": [
        {
          "indexed": true,
          "name": "owner",
          "type": "address"
        },
        {
          "indexed": true,
          "name": "approved",
          "type": "address"
        },
        {
          "indexed": true,
          "name": "tokenId",
          "type": "uint256"
        }
      ],
      "name": "Approval",
      "type": "event"
    },
    {
      "anonymous": false,
      "inputs": [
        {
          "indexed": true,
          "name": "owner",
          "type": "address"
        },
        {
          "indexed": true,
          "name": "operator",
          "type": "address"
        },
        {
          "indexed": false,
          "name": "approved",
          "type": "bool"
        }
      ],
      "name": "ApprovalForAll",
      "type": "event"
    },
    {
      "anonymous": false,
      "inputs": [
        {
          "indexed": false,
          "name": "account",
          "type": "address"
        }
      ],
      "name": "Paused",
      "type": "event"
    },
    {
      "anonymous": false,
      "inputs": [
        {
          "indexed": false,
          "name": "account",
          "type": "address"
        }
      ],
      "name": "Unpaused",
      "type": "event"
    },
    {
      "anonymous": false,
      "inputs": [
        {
          "indexed": true,
          "name": "previousOwner",
          "type": "address"
        },
        {
          "indexed": true,
          "name": "newOwner",
          "type": "address"
        }
      ],
      "name": "OwnershipTransferred",
      "type": "event"
    },
    {
      "constant": false,
      "inputs": [
        {
          "name": "a",
          "type": "uint256[2]"
        },
        {
          "name": "b",
          "type": "uint256[2][2]"
        },
        {
          "name": "c",
          "type": "uint256[2]"
        },
        {
          "name": "input",
          "type": "uint256[2]"
        }
      ],
      "name": "addSolution",
      "outputs": [],
      "payable": false,
      "stateMutability": "nonpayable",
      "type": "function"
    },
    {
      "constant": false,
      "inputs": [
        {
          "name": "to",
          "type": "address"
        },
        {
          "name": "tokenId",
          "type": "uint256"
        }
      ],
      "name": "mint",
      "outputs": [
        {
          "name": "",
          "type": "bool"
        }
      ],
      "payable": false,
      "stateMutability": "nonpayable",
      "type": "function"
    },
    {
      "constant": false,
      "inputs": [
        {
          "name": "solutionHash",
          "type": "bytes32"
        },
        {
          "name": "to",
          "type": "address"
        },
        {
          "name": "tokenId",
          "type": "uint256"
        }
      ],
      "name": "mint",
      "outputs": [
        {
          "name": "",
          "type": "bool"
        }
      ],
      "payable": false,
      "stateMutability": "nonpayable",
      "type": "function"
    }
  ],
  "bytecode": "0x60806040523480156200001157600080fd5b5060405160208062003dff833981018060405260208110156200003357600080fd5b81019080805190602001909291905050506040805190810160405280601181526020017f42617374696465486f757365546f6b656e0000000000000000000000000000008152506040805190810160405280600381526020017f4248540000000000000000000000000000000000000000000000000000000000815250606060405190810160405280603f815260200162003dc0603f9139336000806101000a81548173ffffffffffffffffffffffffffffffffffffffff021916908373ffffffffffffffffffffffffffffffffffffffff1602179055506000809054906101000a900473ffffffffffffffffffffffffffffffffffffffff1673ffffffffffffffffffffffffffffffffffffffff16600073ffffffffffffffffffffffffffffffffffffffff167f8be0079c531659141344cd1fd0a4f28419497f9722a3daafe3b4186f6b6457e060405160405180910390a360008060146101000a81548160ff021916908315150217905550620001de6301ffc9a77c0100000000000000000000000000000000000000000000000000000000026200032b640100000000026401000000009004565b6200021b6380ac58cd7c0100000000000000000000000000000000000000000000000000000000026200032b640100000000026401000000009004565b6200025863780e9d637c0100000000000000000000000000000000000000000000000000000000026200032b640100000000026401000000009004565b82600f908051906020019062000270929190620003e9565b50816010908051906020019062000289929190620003e9565b508060119080519060200190620002a2929190620003e9565b50620002e0635b5e139f7c0100000000000000000000000000000000000000000000000000000000026200032b640100000000026401000000009004565b50505080601360006101000a81548173ffffffffffffffffffffffffffffffffffffffff021916908373ffffffffffffffffffffffffffffffffffffffff1602179055505062000498565b63ffffffff7c010000000000000000000000000000000000000000000000000000000002817bffffffffffffffffffffffffffffffffffffffffffffffffffffffff1916141515156200037d57600080fd5b6001806000837bffffffffffffffffffffffffffffffffffffffffffffffffffffffff19167bffffffffffffffffffffffffffffffffffffffffffffffffffffffff1916815260200190815260200160002060006101000a81548160ff02191690831515021790555050565b828054600181600116156101000203166002900490600052602060002090601f016020900481019282601f106200042c57805160ff19168380011785556200045d565b828001600101855582156200045d579182015b828111156200045c5782518255916020019190600101906200043f565b5b5090506200046c919062000470565b5090565b6200049591905b808211156200049157600081600090555060010162000477565b5090565b90565b61391880620004a86000396000f3fe608060405234801561001057600080fd5b50600436106101ec576000357c0100000000000000000000000000000000000000000000000000000000900480636352211e1161012157806395d89b41116100bf578063d547cfb71161008e578063d547cfb714610c1b578063e985e9c514610c9e578063f2fde38b14610d1a578063f76b443114610d5e576101ec565b806395d89b411461099c578063a22cb46514610a1f578063b88d4fde14610a6f578063c87b56dd14610b74576101ec565b80637ed9db59116100fb5780637ed9db59146108b65780638456cb59146109265780638da5cb5b146109305780638f32d59b1461097a576101ec565b80636352211e146107e657806370a0823114610854578063715018a6146108ac576101ec565b80632f745c591161018e57806340c10f191161016857806340c10f19146106ae57806342842e0e146107145780634f6ccce7146107825780635c975abb146107c4576101ec565b80632f745c59146104e657806338bbfa50146105485780633f4ba83a146106a4576101ec565b8063095ea7b3116101ca578063095ea7b31461034757806318160ddd1461039557806323b872dd146103b357806327dc297e14610421576101ec565b806301ffc9a7146101f157806306fdde0314610256578063081812fc146102d9575b600080fd5b61023c6004803603602081101561020757600080fd5b8101908080357bffffffffffffffffffffffffffffffffffffffffffffffffffffffff19169060200190929190505050610ebf565b604051808215151515815260200191505060405180910390f35b61025e610f27565b6040518080602001828103825283818151815260200191508051906020019080838360005b8381101561029e578082015181840152602081019050610283565b50505050905090810190601f1680156102cb5780820380516001836020036101000a031916815260200191505b509250505060405180910390f35b610305600480360360208110156102ef57600080fd5b8101908080359060200190929190505050610fc9565b604051808273ffffffffffffffffffffffffffffffffffffffff1673ffffffffffffffffffffffffffffffffffffffff16815260200191505060405180910390f35b6103936004803603604081101561035d57600080fd5b81019080803573ffffffffffffffffffffffffffffffffffffffff1690602001909291908035906020019092919050505061112e565b005b61039d611352565b6040518082815260200191505060405180910390f35b61041f600480360360608110156103c957600080fd5b81019080803573ffffffffffffffffffffffffffffffffffffffff169060200190929190803573ffffffffffffffffffffffffffffffffffffffff1690602001909291908035906020019092919050505061135f565b005b6104e46004803603604081101561043757600080fd5b81019080803590602001909291908035906020019064010000000081111561045e57600080fd5b82018360208201111561047057600080fd5b8035906020019184600183028401116401000000008311171561049257600080fd5b91908080601f016020809104026020016040519081016040528093929190818152602001838380828437600081840152601f19601f820116905080830192505050505050509192919290505050611384565b005b610532600480360360408110156104fc57600080fd5b81019080803573ffffffffffffffffffffffffffffffffffffffff169060200190929190803590602001909291905050506113c7565b6040518082815260200191505060405180910390f35b6106a26004803603606081101561055e57600080fd5b81019080803590602001909291908035906020019064010000000081111561058557600080fd5b82018360208201111561059757600080fd5b803590602001918460018302840111640100000000831117156105b957600080fd5b91908080601f016020809104026020016040519081016040528093929190818152602001838380828437600081840152601f19601f8201169050808301925050505050505091929192908035906020019064010000000081111561061c57600080fd5b82018360208201111561062e57600080fd5b8035906020019184600183028401116401000000008311171561065057600080fd5b91908080601f016020809104026020016040519081016040528093929190818152602001838380828437600081840152601f19601f82011690508083019250505050505050919291929050505061143e565b005b6106ac611443565b005b6106fa600480360360408110156106c457600080fd5b81019080803573ffffffffffffffffffffffffffffffffffffffff169060200190929190803590602001909291905050506114f0565b604051808215151515815260200191505060405180910390f35b6107806004803603606081101561072a57600080fd5b81019080803573ffffffffffffffffffffffffffffffffffffffff169060200190929190803573ffffffffffffffffffffffffffffffffffffffff16906020019092919080359060200190929190505050611522565b005b6107ae6004803603602081101561079857600080fd5b8101908080359060200190929190505050611543565b6040518082815260200191505060405180910390f35b6107cc61157b565b604051808215151515815260200191505060405180910390f35b610812600480360360208110156107fc57600080fd5b8101908080359060200190929190505050611591565b604051808273ffffffffffffffffffffffffffffffffffffffff1673ffffffffffffffffffffffffffffffffffffffff16815260200191505060405180910390f35b6108966004803603602081101561086a57600080fd5b81019080803573ffffffffffffffffffffffffffffffffffffffff1690602001909291905050506115ce565b6040518082815260200191505060405180910390f35b6108b461161e565b005b61090c600480360360608110156108cc57600080fd5b8101908080359060200190929190803573ffffffffffffffffffffffffffffffffffffffff169060200190929190803590602001909291905050506116f0565b604051808215151515815260200191505060405180910390f35b61092e611910565b005b6109386119bf565b604051808273ffffffffffffffffffffffffffffffffffffffff1673ffffffffffffffffffffffffffffffffffffffff16815260200191505060405180910390f35b6109826119e8565b604051808215151515815260200191505060405180910390f35b6109a4611a3f565b6040518080602001828103825283818151815260200191508051906020019080838360005b838110156109e45780820151818401526020810190506109c9565b50505050905090810190601f168015610a115780820380516001836020036101000a031916815260200191505b509250505060405180910390f35b610a6d60048036036040811015610a3557600080fd5b81019080803573ffffffffffffffffffffffffffffffffffffffff169060200190929190803515159060200190929190505050611ae1565b005b610b7260048036036080811015610a8557600080fd5b81019080803573ffffffffffffffffffffffffffffffffffffffff169060200190929190803573ffffffffffffffffffffffffffffffffffffffff1690602001909291908035906020019092919080359060200190640100000000811115610aec57600080fd5b820183602082011115610afe57600080fd5b80359060200191846001830284011164010000000083111715610b2057600080fd5b91908080601f016020809104026020016040519081016040528093929190818152602001838380828437600081840152601f19601f820116905080830192505050505050509192919290505050611c1d565b005b610ba060048036036020811015610b8a57600080fd5b8101908080359060200190929190505050611c45565b6040518080602001828103825283818151815260200191508051906020019080838360005b83811015610be0578082015181840152602081019050610bc5565b50505050905090810190601f168015610c0d5780820380516001836020036101000a031916815260200191505b509250505060405180910390f35b610c23611d0e565b6040518080602001828103825283818151815260200191508051906020019080838360005b83811015610c63578082015181840152602081019050610c48565b50505050905090810190601f168015610c905780820380516001836020036101000a031916815260200191505b509250505060405180910390f35b610d0060048036036040811015610cb457600080fd5b81019080803573ffffffffffffffffffffffffffffffffffffffff169060200190929190803573ffffffffffffffffffffffffffffffffffffffff169060200190929190505050611db0565b604051808215151515815260200191505060405180910390f35b610d5c60048036036020811015610d3057600080fd5b81019080803573ffffffffffffffffffffffffffffffffffffffff169060200190929190505050611e44565b005b610ebd6004803603610140811015610d7557600080fd5b8101908080604001906002806020026040519081016040528092919082600260200280828437600081840152601f19601f82011690508083019250505050505091929192908060800190600280602002604051908101604052809291906000905b82821015610e2a578382604002016002806020026040519081016040528092919082600260200280828437600081840152601f19601f82011690508083019250505050505081526020019060010190610dd6565b50505050919291929080604001906002806020026040519081016040528092919082600260200280828437600081840152601f19601f820116905080830192505050505050919291929080604001906002806020026040519081016040528092919082600260200280828437600081840152601f19601f8201169050808301925050505050509192919290505050611e63565b005b600060016000837bffffffffffffffffffffffffffffffffffffffffffffffffffffffff19167bffffffffffffffffffffffffffffffffffffffffffffffffffffffff1916815260200190815260200160002060009054906101000a900460ff169050919050565b6060600f8054600181600116156101000203166002900480601f016020809104026020016040519081016040528092919081815260200182805460018160011615610100020316600290048015610fbf5780601f10610f9457610100808354040283529160200191610fbf565b820191906000526020600020905b815481529060010190602001808311610fa257829003601f168201915b5050505050905090565b6000610fd4826123a5565b1515611048576040517f08c379a00000000000000000000000000000000000000000000000000000000081526004018080602001828103825260148152602001807f546f6b656e20646f6573206e6f7420657869737400000000000000000000000081525060200191505060405180910390fd5b60006003600084815260200190815260200160002060009054906101000a900473ffffffffffffffffffffffffffffffffffffffff169050600073ffffffffffffffffffffffffffffffffffffffff168173ffffffffffffffffffffffffffffffffffffffff1614151515611125576040517f08c379a000000000000000000000000000000000000000000000000000000000815260040180806020018281038252601a8152602001807f4e6f20617070726f76616c20666f72207468697320746f6b656e00000000000081525060200191505060405180910390fd5b80915050919050565b8173ffffffffffffffffffffffffffffffffffffffff166002600083815260200190815260200160002060009054906101000a900473ffffffffffffffffffffffffffffffffffffffff1673ffffffffffffffffffffffffffffffffffffffff16141515156111e8576040517f08c379a00000000000000000000000000000000000000000000000000000000081526004018080602001828103825260338152602001806138ba6033913960400191505060405180910390fd5b3373ffffffffffffffffffffffffffffffffffffffff166002600083815260200190815260200160002060009054906101000a900473ffffffffffffffffffffffffffffffffffffffff1673ffffffffffffffffffffffffffffffffffffffff161415156112a1576040517f08c379a00000000000000000000000000000000000000000000000000000000081526004018080602001828103825260318152602001806138066031913960400191505060405180910390fd5b816003600083815260200190815260200160002060006101000a81548173ffffffffffffffffffffffffffffffffffffffff021916908373ffffffffffffffffffffffffffffffffffffffff160217905550808273ffffffffffffffffffffffffffffffffffffffff163373ffffffffffffffffffffffffffffffffffffffff167f8c5be1e5ebec7d5bd14f71427d1e84f3dd0314c0f7b2291e5b200ac8c7c3b92560405160405180910390a45050565b6000600880549050905090565b6113693382612417565b151561137457600080fd5b61137f8383836124ac565b505050565b6113c3828260006040519080825280601f01601f1916602001820160405280156113bd5781602001600182028038833980820191505090505b5061143e565b5050565b60006113d2836115ce565b821015156113df57600080fd5b600660008473ffffffffffffffffffffffffffffffffffffffff1673ffffffffffffffffffffffffffffffffffffffff1681526020019081526020016000208281548110151561142b57fe5b9060005260206000200154905092915050565b505050565b61144b6119e8565b151561145657600080fd5b600060149054906101000a900460ff16151561147157600080fd5b60008060146101000a81548160ff0219169083151502179055507f5db9ee0a495bf2e6ff9c91a7834c1ba4fdd244a5e8aa4e537bd38aeae4b073aa33604051808273ffffffffffffffffffffffffffffffffffffffff1673ffffffffffffffffffffffffffffffffffffffff16815260200191505060405180910390a1565b60006114fa6119e8565b151561150557600080fd5b61150f83836124d0565b611518826124f1565b6001905092915050565b61153e8383836020604051908101604052806000815250611c1d565b505050565b600061154d611352565b8210151561155a57600080fd5b60088281548110151561156957fe5b90600052602060002001549050919050565b60008060149054906101000a900460ff16905090565b60006002600083815260200190815260200160002060009054906101000a900473ffffffffffffffffffffffffffffffffffffffff169050919050565b6000611617600460008473ffffffffffffffffffffffffffffffffffffffff1673ffffffffffffffffffffffffffffffffffffffff168152602001908152602001600020612644565b9050919050565b6116266119e8565b151561163157600080fd5b600073ffffffffffffffffffffffffffffffffffffffff166000809054906101000a900473ffffffffffffffffffffffffffffffffffffffff1673ffffffffffffffffffffffffffffffffffffffff167f8be0079c531659141344cd1fd0a4f28419497f9722a3daafe3b4186f6b6457e060405160405180910390a360008060006101000a81548173ffffffffffffffffffffffffffffffffffffffff021916908373ffffffffffffffffffffffffffffffffffffffff160217905550565b60006116fa6119e8565b151561170557600080fd5b6014600085815260200190815260200160002060000160159054906101000a900460ff16151561179d576040517f08c379a000000000000000000000000000000000000000000000000000000000815260040180806020018281038252601d8152602001807f5468697320736f6c7574696f6e20646f6573206e6f742065786973747300000081525060200191505060405180910390fd5b3373ffffffffffffffffffffffffffffffffffffffff166014600086815260200190815260200160002060000160009054906101000a900473ffffffffffffffffffffffffffffffffffffffff1673ffffffffffffffffffffffffffffffffffffffff16141515611859576040517f08c379a00000000000000000000000000000000000000000000000000000000081526004018080602001828103825260378152602001806138376037913960400191505060405180910390fd5b6014600085815260200190815260200160002060000160149054906101000a900460ff161515156118f2576040517f08c379a000000000000000000000000000000000000000000000000000000000815260040180806020018281038252601d8152602001807f5468697320736f6c7574696f6e20697320616c7265616479207573656400000081525060200191505060405180910390fd5b6118fc83836124d0565b611905826124f1565b600190509392505050565b6119186119e8565b151561192357600080fd5b600060149054906101000a900460ff1615151561193f57600080fd5b6001600060146101000a81548160ff0219169083151502179055507f62e78cea01bee320cd4e420270b5ea74000d11b0c9f74754ebdbfc544b05a25833604051808273ffffffffffffffffffffffffffffffffffffffff1673ffffffffffffffffffffffffffffffffffffffff16815260200191505060405180910390a1565b60008060009054906101000a900473ffffffffffffffffffffffffffffffffffffffff16905090565b60008060009054906101000a900473ffffffffffffffffffffffffffffffffffffffff1673ffffffffffffffffffffffffffffffffffffffff163373ffffffffffffffffffffffffffffffffffffffff1614905090565b606060108054600181600116156101000203166002900480601f016020809104026020016040519081016040528092919081815260200182805460018160011615610100020316600290048015611ad75780601f10611aac57610100808354040283529160200191611ad7565b820191906000526020600020905b815481529060010190602001808311611aba57829003601f168201915b5050505050905090565b3373ffffffffffffffffffffffffffffffffffffffff168273ffffffffffffffffffffffffffffffffffffffff1614151515611b1c57600080fd5b80600560003373ffffffffffffffffffffffffffffffffffffffff1673ffffffffffffffffffffffffffffffffffffffff16815260200190815260200160002060008473ffffffffffffffffffffffffffffffffffffffff1673ffffffffffffffffffffffffffffffffffffffff16815260200190815260200160002060006101000a81548160ff0219169083151502179055508173ffffffffffffffffffffffffffffffffffffffff163373ffffffffffffffffffffffffffffffffffffffff167f17307eab39ab6107e8899845ad3d59bd9653f200f220920489ca2b5937696c3183604051808215151515815260200191505060405180910390a35050565b611c2884848461135f565b611c3484848484612652565b1515611c3f57600080fd5b50505050565b6060611c50826123a5565b1515611c5b57600080fd5b601260008381526020019081526020016000208054600181600116156101000203166002900480601f016020809104026020016040519081016040528092919081815260200182805460018160011615610100020316600290048015611d025780601f10611cd757610100808354040283529160200191611d02565b820191906000526020600020905b815481529060010190602001808311611ce557829003601f168201915b50505050509050919050565b606060118054600181600116156101000203166002900480601f016020809104026020016040519081016040528092919081815260200182805460018160011615610100020316600290048015611da65780601f10611d7b57610100808354040283529160200191611da6565b820191906000526020600020905b815481529060010190602001808311611d8957829003601f168201915b5050505050905090565b6000600560008473ffffffffffffffffffffffffffffffffffffffff1673ffffffffffffffffffffffffffffffffffffffff16815260200190815260200160002060008373ffffffffffffffffffffffffffffffffffffffff1673ffffffffffffffffffffffffffffffffffffffff16815260200190815260200160002060009054906101000a900460ff16905092915050565b611e4c6119e8565b1515611e5757600080fd5b611e6081612875565b50565b6000848484846040516020018085600260200280838360005b83811015611e97578082015181840152602081019050611e7c565b505050509050018460026000925b81841015611eeb5782846020020151600260200280838360005b83811015611eda578082015181840152602081019050611ebf565b505050509050019260010192611ea5565b9250505083600260200280838360005b83811015611f16578082015181840152602081019050611efb565b5050505090500182600260200280838360005b83811015611f44578082015181840152602081019050611f29565b50505050905001945050505050604051602081830303815290604052805190602001209050600073ffffffffffffffffffffffffffffffffffffffff166014600083815260200190815260200160002060000160009054906101000a900473ffffffffffffffffffffffffffffffffffffffff1673ffffffffffffffffffffffffffffffffffffffff16141515612043576040517f08c379a000000000000000000000000000000000000000000000000000000000815260040180806020018281038252601b8152602001807f5468697320736f6c7574696f6e20616c7265616479206578697374000000000081525060200191505060405180910390fd5b601360009054906101000a900473ffffffffffffffffffffffffffffffffffffffff1673ffffffffffffffffffffffffffffffffffffffff1663621e9ec0868686866040518563ffffffff167c01000000000000000000000000000000000000000000000000000000000281526004018085600260200280838360005b838110156120db5780820151818401526020810190506120c0565b505050509050018460026000925b8184101561212f5782846020020151600260200280838360005b8381101561211e578082015181840152602081019050612103565b5050505090500192600101926120e9565b9250505083600260200280838360005b8381101561215a57808201518184015260208101905061213f565b5050505090500182600260200280838360005b8381101561218857808201518184015260208101905061216d565b50505050905001945050505050602060405180830381600087803b1580156121af57600080fd5b505af11580156121c3573d6000803e3d6000fd5b505050506040513d60208110156121d957600080fd5b8101908080519060200190929190505050151561225e576040517f08c379a000000000000000000000000000000000000000000000000000000000815260040180806020018281038252600e8152602001807f57726f6e6720736f6c7574696f6e00000000000000000000000000000000000081525060200191505060405180910390fd5b6060604051908101604052803373ffffffffffffffffffffffffffffffffffffffff168152602001600015158152602001600115158152506014600083815260200190815260200160002060008201518160000160006101000a81548173ffffffffffffffffffffffffffffffffffffffff021916908373ffffffffffffffffffffffffffffffffffffffff16021790555060208201518160000160146101000a81548160ff02191690831515021790555060408201518160000160156101000a81548160ff0219169083151502179055509050507fcafef32a03d67cb41de6536837091cd24bb0090648f28e1d13195dc48cde6fad3382604051808373ffffffffffffffffffffffffffffffffffffffff1673ffffffffffffffffffffffffffffffffffffffff1681526020018281526020019250505060405180910390a15050505050565b6000806002600084815260200190815260200160002060009054906101000a900473ffffffffffffffffffffffffffffffffffffffff169050600073ffffffffffffffffffffffffffffffffffffffff168173ffffffffffffffffffffffffffffffffffffffff161415915050919050565b60008061242383611591565b90508073ffffffffffffffffffffffffffffffffffffffff168473ffffffffffffffffffffffffffffffffffffffff16148061249257508373ffffffffffffffffffffffffffffffffffffffff1661247a84610fc9565b73ffffffffffffffffffffffffffffffffffffffff16145b806124a357506124a28185611db0565b5b91505092915050565b6124b783838361296f565b6124c18382612b82565b6124cb8282612d26565b505050565b6124da8282612ded565b6124e48282612d26565b6124ed81612fcf565b5050565b6124fa816123a5565b151561256e576040517f08c379a00000000000000000000000000000000000000000000000000000000081526004018080602001828103825260158152602001807f4e6f20746f6b656e20776974682074686973206964000000000000000000000081525060200191505060405180910390fd5b61261a60118054600181600116156101000203166002900480601f0160208091040260200160405190810160405280929190818152602001828054600181600116156101000203166002900480156126075780601f106125dc57610100808354040283529160200191612607565b820191906000526020600020905b8154815290600101906020018083116125ea57829003601f168201915b50505050506126158361301b565b613174565b601260008381526020019081526020016000209080519060200190612640929190613704565b5050565b600081600001549050919050565b60006126738473ffffffffffffffffffffffffffffffffffffffff166131bb565b1515612682576001905061286d565b60008473ffffffffffffffffffffffffffffffffffffffff1663150b7a02338887876040518563ffffffff167c0100000000000000000000000000000000000000000000000000000000028152600401808573ffffffffffffffffffffffffffffffffffffffff1673ffffffffffffffffffffffffffffffffffffffff1681526020018473ffffffffffffffffffffffffffffffffffffffff1673ffffffffffffffffffffffffffffffffffffffff16815260200183815260200180602001828103825283818151815260200191508051906020019080838360005b8381101561277957808201518184015260208101905061275e565b50505050905090810190601f1680156127a65780820380516001836020036101000a031916815260200191505b5095505050505050602060405180830381600087803b1580156127c857600080fd5b505af11580156127dc573d6000803e3d6000fd5b505050506040513d60208110156127f257600080fd5b8101908080519060200190929190505050905063150b7a027c0100000000000000000000000000000000000000000000000000000000027bffffffffffffffffffffffffffffffffffffffffffffffffffffffff1916817bffffffffffffffffffffffffffffffffffffffffffffffffffffffff1916149150505b949350505050565b600073ffffffffffffffffffffffffffffffffffffffff168173ffffffffffffffffffffffffffffffffffffffff16141515156128b157600080fd5b8073ffffffffffffffffffffffffffffffffffffffff166000809054906101000a900473ffffffffffffffffffffffffffffffffffffffff1673ffffffffffffffffffffffffffffffffffffffff167f8be0079c531659141344cd1fd0a4f28419497f9722a3daafe3b4186f6b6457e060405160405180910390a3806000806101000a81548173ffffffffffffffffffffffffffffffffffffffff021916908373ffffffffffffffffffffffffffffffffffffffff16021790555050565b61297881611591565b73ffffffffffffffffffffffffffffffffffffffff168373ffffffffffffffffffffffffffffffffffffffff161415156129fd576040517f08c379a00000000000000000000000000000000000000000000000000000000081526004018080602001828103825260308152602001806137d66030913960400191505060405180910390fd5b600073ffffffffffffffffffffffffffffffffffffffff168273ffffffffffffffffffffffffffffffffffffffff1614151515612a3957600080fd5b612a42816131ce565b612a89600460008573ffffffffffffffffffffffffffffffffffffffff1673ffffffffffffffffffffffffffffffffffffffff16815260200190815260200160002061328e565b612ad0600460008473ffffffffffffffffffffffffffffffffffffffff1673ffffffffffffffffffffffffffffffffffffffff1681526020019081526020016000206132b1565b816002600083815260200190815260200160002060006101000a81548173ffffffffffffffffffffffffffffffffffffffff021916908373ffffffffffffffffffffffffffffffffffffffff160217905550808273ffffffffffffffffffffffffffffffffffffffff168473ffffffffffffffffffffffffffffffffffffffff167fddf252ad1be2c89b69c2b068fc378daa952ba7f163c4a11628f55a4df523b3ef60405160405180910390a4505050565b6000612bda6001600660008673ffffffffffffffffffffffffffffffffffffffff1673ffffffffffffffffffffffffffffffffffffffff168152602001908152602001600020805490506132c790919063ffffffff16565b90506000600760008481526020019081526020016000205490508181141515612ccd576000600660008673ffffffffffffffffffffffffffffffffffffffff1673ffffffffffffffffffffffffffffffffffffffff16815260200190815260200160002083815481101515612c4b57fe5b9060005260206000200154905080600660008773ffffffffffffffffffffffffffffffffffffffff1673ffffffffffffffffffffffffffffffffffffffff16815260200190815260200160002083815481101515612ca557fe5b9060005260206000200181905550816007600083815260200190815260200160002081905550505b600660008573ffffffffffffffffffffffffffffffffffffffff1673ffffffffffffffffffffffffffffffffffffffff168152602001908152602001600020805480919060019003612d1f9190613784565b5050505050565b600660008373ffffffffffffffffffffffffffffffffffffffff1673ffffffffffffffffffffffffffffffffffffffff168152602001908152602001600020805490506007600083815260200190815260200160002081905550600660008373ffffffffffffffffffffffffffffffffffffffff1673ffffffffffffffffffffffffffffffffffffffff1681526020019081526020016000208190806001815401808255809150509060018203906000526020600020016000909192909190915055505050565b612df6816123a5565b151515612e4e576040517f08c379a00000000000000000000000000000000000000000000000000000000081526004018080602001828103825260288152602001806138926028913960400191505060405180910390fd5b600073ffffffffffffffffffffffffffffffffffffffff168273ffffffffffffffffffffffffffffffffffffffff1614151515612ed6576040517f08c379a000000000000000000000000000000000000000000000000000000000815260040180806020018281038252602481526020018061386e6024913960400191505060405180910390fd5b816002600083815260200190815260200160002060006101000a81548173ffffffffffffffffffffffffffffffffffffffff021916908373ffffffffffffffffffffffffffffffffffffffff160217905550612f6f600460008473ffffffffffffffffffffffffffffffffffffffff1673ffffffffffffffffffffffffffffffffffffffff1681526020019081526020016000206132b1565b808273ffffffffffffffffffffffffffffffffffffffff16600073ffffffffffffffffffffffffffffffffffffffff167fddf252ad1be2c89b69c2b068fc378daa952ba7f163c4a11628f55a4df523b3ef60405160405180910390a45050565b6008805490506009600083815260200190815260200160002081905550600881908060018154018082558091505090600182039060005260206000200160009091929091909150555050565b60606000821415613063576040805190810160405280600181526020017f3000000000000000000000000000000000000000000000000000000000000000815250905061316f565b600082905060005b600082141515613091578080600101915050600a8281151561308957fe5b04915061306b565b6060816040519080825280601f01601f1916602001820160405280156130c65781602001600182028038833980820191505090505b50905060006001830390505b60008614151561316757600a868115156130e857fe5b066030017f01000000000000000000000000000000000000000000000000000000000000000282828060019003935081518110151561312357fe5b9060200101907effffffffffffffffffffffffffffffffffffffffffffffffffffffffffffff1916908160001a905350600a8681151561315f57fe5b0495506130d2565b819450505050505b919050565b60606131b383836020604051908101604052806000815250602060405190810160405280600081525060206040519081016040528060008152506132e9565b905092915050565b600080823b905060008111915050919050565b600073ffffffffffffffffffffffffffffffffffffffff166003600083815260200190815260200160002060009054906101000a900473ffffffffffffffffffffffffffffffffffffffff1673ffffffffffffffffffffffffffffffffffffffff1614151561328b5760006003600083815260200190815260200160002060006101000a81548173ffffffffffffffffffffffffffffffffffffffff021916908373ffffffffffffffffffffffffffffffffffffffff1602179055505b50565b6132a6600182600001546132c790919063ffffffff16565b816000018190555050565b6001816000016000828254019250508190555050565b60008282111515156132d857600080fd5b600082840390508091505092915050565b6060808690506060869050606086905060608690506060869050606081518351855187518951010101016040519080825280601f01601f1916602001820160405280156133455781602001600182028038833980820191505090505b509050606081905060008090506000809050600090505b885181101561340f57888181518110151561337357fe5b9060200101517f010000000000000000000000000000000000000000000000000000000000000090047f01000000000000000000000000000000000000000000000000000000000000000283838060010194508151811015156133d257fe5b9060200101907effffffffffffffffffffffffffffffffffffffffffffffffffffffffffffff1916908160001a905350808060010191505061335c565b600090505b87518110156134c757878181518110151561342b57fe5b9060200101517f010000000000000000000000000000000000000000000000000000000000000090047f010000000000000000000000000000000000000000000000000000000000000002838380600101945081518110151561348a57fe5b9060200101907effffffffffffffffffffffffffffffffffffffffffffffffffffffffffffff1916908160001a9053508080600101915050613414565b600090505b865181101561357f5786818151811015156134e357fe5b9060200101517f010000000000000000000000000000000000000000000000000000000000000090047f010000000000000000000000000000000000000000000000000000000000000002838380600101945081518110151561354257fe5b9060200101907effffffffffffffffffffffffffffffffffffffffffffffffffffffffffffff1916908160001a90535080806001019150506134cc565b600090505b855181101561363757858181518110151561359b57fe5b9060200101517f010000000000000000000000000000000000000000000000000000000000000090047f01000000000000000000000000000000000000000000000000000000000000000283838060010194508151811015156135fa57fe5b9060200101907effffffffffffffffffffffffffffffffffffffffffffffffffffffffffffff1916908160001a9053508080600101915050613584565b600090505b84518110156136ef57848181518110151561365357fe5b9060200101517f010000000000000000000000000000000000000000000000000000000000000090047f01000000000000000000000000000000000000000000000000000000000000000283838060010194508151811015156136b257fe5b9060200101907effffffffffffffffffffffffffffffffffffffffffffffffffffffffffffff1916908160001a905350808060010191505061363c565b82995050505050505050505095945050505050565b828054600181600116156101000203166002900490600052602060002090601f016020900481019282601f1061374557805160ff1916838001178555613773565b82800160010185558215613773579182015b82811115613772578251825591602001919060010190613757565b5b50905061378091906137b0565b5090565b8154818355818111156137ab578183600052602060002091820191016137aa91906137b0565b5b505050565b6137d291905b808211156137ce5760008160009055506001016137b6565b5090565b9056fe4f6e6c7920746865206f776e6572206f662074686520746f6b656e2063616e207472616e73666572206120746f6b656e4d75737420626520746865206f776e6572206f662074686520746f6b656e20746f2073657420616e20617070726f76616c4f6e6c792074686520616464726573732077686f207375626d6974746564207468697320736f6c7574696f6e2063616e207573652069745a656f206164647265737320697320696e76616c696420746f206d696e7420746f6b656e45524337323120746f6b656e2077697468207468697320696420616c72656164792065786973747343616e277420617070726f766520616e2061646472657373207468617420616c7265616479206f776e2074686520746f6b656ea165627a7a723058200a77c31a7c798faa8936d38759882adbeb466ececdd39aa1a34537d44516347c002968747470733a2f2f73332d75732d776573742d322e616d617a6f6e6177732e636f6d2f756461636974792d626c6f636b636861696e2f63617073746f6e652f",
  "source": "pragma solidity >=0.4.21 <0.6.0;\n\nimport \"./AdrienHouseToken.sol\";\nimport \"./Verifier.sol\";\n\n// TODO define a contract call to the zokrates generated solidity contract <Verifier> or <renamedVerifier>\n// contract IVerifier {\n//   function verifyTx(uint[2] memory a, uint[2][2] memory b, uint[2] memory c, uint[2] memory input) public returns (bool r);\n// }\n\n\n// TODO define another contract named SolnSquareVerifier that inherits from your ERC721Mintable class\ncontract SolnSquareVerifier is AdrienHouseToken {\n  struct Solution {\n    address solver;   // The address of the user who provided this solution\n    bool used;        // To check if the solution has already been used or not\n    bool exists;      // To check if the solution exists\n  }\n\n  Verifier private verifierContract;\n  mapping(bytes32 => Solution) solutions;\n\n  event SolutionAdded(address solver, bytes32 solutionHash);\n\n  constructor(address verifierAddress) public {\n    verifierContract = Verifier(verifierAddress);\n  }\n\n  function addSolution(\n            uint[2] memory a,\n            uint[2][2] memory b,\n            uint[2] memory c,\n            uint[2] memory input\n  ) public {\n    bytes32 uniqueSolution = keccak256(abi.encodePacked(a, b, c, input));\n    require(solutions[uniqueSolution].solver == address(0), \"This solution already exist\");\n    require(verifierContract.verifyTx(a,b,c,input), \"Wrong solution\");\n\n    // Create a new solution that is not used yet\n    solutions[uniqueSolution] = Solution({\n      solver: msg.sender,\n      used: false,\n      exists: true\n    });\n\n    // Emit correponding event\n    emit SolutionAdded(msg.sender, uniqueSolution);\n  }\n\n  function mint(bytes32 solutionHash, address to, uint256 tokenId) public onlyOwner returns(bool) {\n      require(solutions[solutionHash].exists, \"This solution does not exists\");\n      require(solutions[solutionHash].solver == msg.sender, \"Only the address who submitted this solution can use it\");\n      require(!solutions[solutionHash].used, \"This solution is already used\");\n\n      super._mint(to, tokenId);\n      super._setTokenURI(tokenId);\n      return true;\n  }\n}\n\n\n// TODO define a solutions struct that can hold an index & an address\n\n\n// TODO define an array of the above struct\n\n\n// TODO define a mapping to store unique solutions submitted\n\n// TODO Create an event to emit when a solution is added\n\n\n\n// TODO Create a function to add the solutions to the array and emit the event\n\n\n\n// TODO Create a function to mint new NFT only after the solution has been verified\n//  - make sure the solution is unique (has not been used before)\n//  - make sure you handle metadata as well as tokenSuplly\n\n  \n\n\n\n\n\n\n\n\n\n\n\n\n\n\n\n\n\n\n\n\n\n\n\n\n\n\n",
  "sourcePath": "/Users/adriendulong/Documents/Dev/Crypto/Udacity/Blockchain-Capstone/eth-contracts/contracts/SolnSquareVerifier.sol",
  "compiler": {
    "name": "solc",
    "version": "0.5.2+commit.1df8f40c.Emscripten.clang"
  },
  "schemaVersion": "3.0.9",
  "updatedAt": "2019-05-21T20:54:31.133Z",
  "devdoc": {
    "methods": {
      "approve(address,uint256)": {
        "details": "Approves another address to transfer the given token ID"
      },
      "baseTokenURI()": {
        "details": "Getter for the baseTokenURI",
        "return": "string the base token URI"
      },
      "getApproved(uint256)": {
        "details": "Get the approved addres for a given tokenId"
      },
      "isApprovedForAll(address,address)": {
        "details": "Tells whether an operator is approved by a given owner",
        "params": {
          "operator": "operator address which you want to query the approval of",
          "owner": "owner address which you want to query the approval of"
        },
        "return": "bool whether the given operator is approved by the given owner"
      },
      "isOwner()": {
        "return": "true if `msg.sender` is the owner of the contract."
      },
      "mint(address,uint256)": {
        "details": "Mint a new token Only the owner of the contract can mint",
        "params": {
          "to": "address that will receive the new mint token",
          "tokenId": "uint256 id of the new token"
        },
        "return": "bool "
      },
      "name()": {
        "details": "Getter for the name of the token",
        "return": "string The name of the token"
      },
      "owner()": {
        "return": "the address of the owner."
      },
      "pause()": {
        "details": "called by the owner to pause, triggers stopped state"
      },
      "paused()": {
        "return": "true if the contract is paused, false otherwise."
      },
      "renounceOwnership()": {
        "details": "Allows the current owner to relinquish control of the contract. It will not be possible to call the functions with the `onlyOwner` modifier anymore."
      },
      "setApprovalForAll(address,bool)": {
        "details": "Sets or unsets the approval of a given operator An operator is allowed to transfer all tokens of the sender on their behalf",
        "params": {
          "approved": "representing the status of the approval to be set",
          "to": "operator address to set the approval"
        }
      },
      "supportsInterface(bytes4)": {
        "details": "implement supportsInterface(bytes4) using a lookup table"
      },
      "symbol()": {
        "details": "Getter for the symbol of the token",
        "return": "string the symbol of the token"
      },
      "tokenByIndex(uint256)": {
        "details": "Gets the token ID at a given index of all the tokens in this contract Reverts if the index is greater or equal to the total number of tokens",
        "params": {
          "index": "uint256 representing the index to be accessed of the tokens list"
        },
        "return": "uint256 token ID at the given index of the tokens list"
      },
      "tokenOfOwnerByIndex(address,uint256)": {
        "details": "Gets the token ID at a given index of the tokens list of the requested owner",
        "params": {
          "index": "uint256 representing the index to be accessed of the requested tokens list",
          "owner": "address owning the tokens list to be accessed"
        },
        "return": "uint256 token ID at the given index of the tokens list owned by the requested address"
      },
      "totalSupply()": {
        "details": "Gets the total amount of tokens stored by the contract",
        "return": "uint256 representing the total amount of tokens"
      },
      "transferOwnership(address)": {
        "details": "Allows the current owner to transfer control of the contract to a newOwner.",
        "params": {
          "newOwner": "The address to transfer ownership to."
        }
      },
      "unpause()": {
        "details": "called by the owner to unpause, returns to normal state"
      }
    }
  },
  "userdoc": {
    "methods": {
      "renounceOwnership()": {
        "notice": "Renouncing ownership will leave the contract without an owner, thereby removing any functionality that is only available to the owner."
      }
    }
  }
}